{
  "_format": "hh-sol-artifact-1",
  "contractName": "ES",
  "sourceName": "contracts/ES.sol",
  "abi": [
    {
      "inputs": [],
      "stateMutability": "nonpayable",
      "type": "constructor"
    },
    {
      "inputs": [
        {
          "internalType": "string",
          "name": "_constituency",
          "type": "string"
        },
        {
          "internalType": "string",
          "name": "_politicalAffiliation",
          "type": "string"
        }
      ],
      "name": "checkParty",
      "outputs": [
        {
          "internalType": "bool",
          "name": "",
          "type": "bool"
        }
      ],
      "stateMutability": "view",
      "type": "function"
    },
    {
      "inputs": [
        {
          "internalType": "string",
          "name": "",
          "type": "string"
        }
      ],
      "name": "constituencies",
      "outputs": [
        {
          "internalType": "string",
          "name": "stateCode",
          "type": "string"
        },
        {
          "internalType": "string",
          "name": "constituencyType",
          "type": "string"
        },
        {
          "internalType": "string",
          "name": "constituencyNumber",
          "type": "string"
        },
        {
          "internalType": "string",
          "name": "constituencyName",
          "type": "string"
        }
      ],
      "stateMutability": "view",
      "type": "function"
    },
    {
      "inputs": [
        {
          "internalType": "uint256",
          "name": "",
          "type": "uint256"
        }
      ],
      "name": "constituencyIds",
      "outputs": [
        {
          "internalType": "string",
          "name": "",
          "type": "string"
        }
      ],
      "stateMutability": "view",
      "type": "function"
    },
    {
      "inputs": [
        {
          "internalType": "string",
          "name": "_uid",
          "type": "string"
        }
      ],
      "name": "existsCandidate",
      "outputs": [
        {
          "internalType": "bool",
          "name": "",
          "type": "bool"
        }
      ],
      "stateMutability": "view",
      "type": "function"
    },
    {
      "inputs": [
        {
          "internalType": "string",
          "name": "_id",
          "type": "string"
        }
      ],
      "name": "existsConstituency",
      "outputs": [
        {
          "internalType": "bool",
          "name": "",
          "type": "bool"
        }
      ],
      "stateMutability": "view",
      "type": "function"
    },
    {
      "inputs": [
        {
          "internalType": "string",
          "name": "_uid",
          "type": "string"
        }
      ],
      "name": "existsVoter",
      "outputs": [
        {
          "internalType": "bool",
          "name": "",
          "type": "bool"
        }
      ],
      "stateMutability": "view",
      "type": "function"
    },
    {
      "inputs": [
        {
          "internalType": "string",
          "name": "_uid",
          "type": "string"
        }
      ],
      "name": "getCandidate",
      "outputs": [
        {
          "components": [
            {
              "internalType": "string",
              "name": "name",
              "type": "string"
            },
            {
              "internalType": "string",
              "name": "fatherName",
              "type": "string"
            },
            {
              "internalType": "string",
              "name": "imageUrl",
              "type": "string"
            },
            {
              "internalType": "string",
              "name": "gender",
              "type": "string"
            },
            {
              "internalType": "string",
              "name": "dob",
              "type": "string"
            },
            {
              "internalType": "string",
              "name": "uid",
              "type": "string"
            },
            {
              "internalType": "string",
              "name": "constituency",
              "type": "string"
            },
            {
              "internalType": "string",
              "name": "location",
              "type": "string"
            },
            {
              "internalType": "string",
              "name": "politicalAffiliation",
              "type": "string"
            },
            {
              "internalType": "string",
              "name": "phoneNumber",
              "type": "string"
            },
            {
              "internalType": "uint256",
              "name": "votes",
              "type": "uint256"
            }
          ],
          "internalType": "struct ES.Candidate",
          "name": "",
          "type": "tuple"
        }
      ],
      "stateMutability": "view",
      "type": "function"
    },
    {
      "inputs": [
        {
          "internalType": "string",
          "name": "_constituency",
          "type": "string"
        }
      ],
      "name": "getCandidateIds",
      "outputs": [
        {
          "internalType": "string[]",
          "name": "",
          "type": "string[]"
        }
      ],
      "stateMutability": "view",
      "type": "function"
    },
    {
      "inputs": [],
      "name": "getConstituencies",
      "outputs": [
        {
          "components": [
            {
              "internalType": "string",
              "name": "stateCode",
              "type": "string"
            },
            {
              "internalType": "string",
              "name": "constituencyType",
              "type": "string"
            },
            {
              "internalType": "string",
              "name": "constituencyNumber",
              "type": "string"
            },
            {
              "internalType": "string",
              "name": "constituencyName",
              "type": "string"
            }
          ],
          "internalType": "struct ES.Constituency[]",
          "name": "",
          "type": "tuple[]"
        }
      ],
      "stateMutability": "view",
      "type": "function"
    },
    {
      "inputs": [
        {
          "internalType": "string",
          "name": "_uid",
          "type": "string"
        }
      ],
      "name": "getIrisSample",
      "outputs": [
        {
          "internalType": "string[]",
          "name": "_irisSample",
          "type": "string[]"
        }
      ],
      "stateMutability": "view",
      "type": "function"
    },
    {
      "inputs": [
        {
          "internalType": "string",
          "name": "_uid",
          "type": "string"
        }
      ],
      "name": "getVoter",
      "outputs": [
        {
          "components": [
            {
              "internalType": "string",
              "name": "name",
              "type": "string"
            },
            {
              "internalType": "string",
              "name": "fatherName",
              "type": "string"
            },
            {
              "internalType": "string",
              "name": "imageUrl",
              "type": "string"
            },
            {
              "internalType": "string",
              "name": "gender",
              "type": "string"
            },
            {
              "internalType": "string",
              "name": "dob",
              "type": "string"
            },
            {
              "internalType": "string",
              "name": "uid",
              "type": "string"
            },
            {
              "internalType": "string",
              "name": "constituency",
              "type": "string"
            },
            {
              "internalType": "string",
              "name": "location",
              "type": "string"
            },
            {
              "internalType": "string",
              "name": "phoneNumber",
              "type": "string"
            },
            {
              "internalType": "bool",
              "name": "isVoted",
              "type": "bool"
            }
          ],
          "internalType": "struct ES.Voter",
          "name": "",
          "type": "tuple"
        }
      ],
      "stateMutability": "view",
      "type": "function"
    },
    {
      "inputs": [
        {
          "internalType": "string",
          "name": "_constituency",
          "type": "string"
        }
      ],
      "name": "getVoterIds",
      "outputs": [
        {
          "internalType": "string[]",
          "name": "",
          "type": "string[]"
        }
      ],
      "stateMutability": "view",
      "type": "function"
    },
    {
      "inputs": [
        {
          "internalType": "string",
          "name": "",
          "type": "string"
        },
        {
          "internalType": "uint256",
          "name": "",
          "type": "uint256"
        }
      ],
      "name": "irisSamples",
      "outputs": [
        {
          "internalType": "string",
          "name": "",
          "type": "string"
        }
      ],
      "stateMutability": "view",
      "type": "function"
    },
    {
      "inputs": [
        {
          "internalType": "string",
          "name": "_uid",
          "type": "string"
        }
      ],
      "name": "isVoterEligible",
      "outputs": [
        {
          "internalType": "bool",
          "name": "",
          "type": "bool"
        }
      ],
      "stateMutability": "view",
      "type": "function"
    },
    {
      "inputs": [
        {
          "internalType": "string",
          "name": "_name",
          "type": "string"
        },
        {
          "internalType": "string",
          "name": "_fatherName",
          "type": "string"
        },
        {
          "internalType": "string",
          "name": "_imageUrl",
          "type": "string"
        },
        {
          "internalType": "string",
          "name": "_gender",
          "type": "string"
        },
        {
          "internalType": "string",
          "name": "_dob",
          "type": "string"
        },
        {
          "internalType": "string",
          "name": "_uid",
          "type": "string"
        },
        {
          "internalType": "string",
          "name": "_constituency",
          "type": "string"
        },
        {
          "internalType": "string",
          "name": "_location",
          "type": "string"
        },
        {
          "internalType": "string",
          "name": "_politicalAffiliation",
          "type": "string"
        },
        {
          "internalType": "string",
          "name": "_phoneNumber",
          "type": "string"
        }
      ],
      "name": "registerCandidate",
      "outputs": [],
      "stateMutability": "nonpayable",
      "type": "function"
    },
    {
      "inputs": [
        {
          "internalType": "string",
          "name": "_stateCode",
          "type": "string"
        },
        {
          "internalType": "string",
          "name": "_cType",
          "type": "string"
        },
        {
          "internalType": "string",
          "name": "_cNumber",
          "type": "string"
        },
        {
          "internalType": "string",
          "name": "_cName",
          "type": "string"
        }
      ],
      "name": "registerConstituency",
      "outputs": [],
      "stateMutability": "nonpayable",
      "type": "function"
    },
    {
      "inputs": [
        {
          "internalType": "string",
          "name": "_name",
          "type": "string"
        },
        {
          "internalType": "string",
          "name": "_fatherName",
          "type": "string"
        },
        {
          "internalType": "string",
          "name": "_imageUrl",
          "type": "string"
        },
        {
          "internalType": "string",
          "name": "_gender",
          "type": "string"
        },
        {
          "internalType": "string",
          "name": "_dob",
          "type": "string"
        },
        {
          "internalType": "string",
          "name": "_uid",
          "type": "string"
        },
        {
          "internalType": "string",
          "name": "_constituency",
          "type": "string"
        },
        {
          "internalType": "string",
          "name": "_location",
          "type": "string"
        },
        {
          "internalType": "string",
          "name": "_phoneNumber",
          "type": "string"
        },
        {
          "internalType": "string[]",
          "name": "_irisSamples",
          "type": "string[]"
        }
      ],
      "name": "registerVoter",
      "outputs": [],
      "stateMutability": "nonpayable",
      "type": "function"
    },
    {
      "inputs": [
        {
          "internalType": "string",
          "name": "_voter_uid",
          "type": "string"
        },
        {
          "internalType": "string",
          "name": "_candidate_uid",
          "type": "string"
        }
      ],
      "name": "vote",
      "outputs": [],
      "stateMutability": "nonpayable",
      "type": "function"
    }
  ],
  "bytecode": "0x6080604052348015600f57600080fd5b503373212e25fe820c221c089cd1163917ff1ee81eba84036038576009805460ff191690556046565b6009805460ff191660011790555b613075806100556000396000f3fe608060405234801561001057600080fd5b50600436106101165760003560e01c8063662b175d116100a2578063dc7dc67011610071578063dc7dc67014610256578063e10ce91714610269578063e8d5940d1461027c578063f276669d1461028f578063f51ead80146102af57600080fd5b8063662b175d1461020a578063ce2bfed41461021d578063cf4cb90514610230578063da69e3ac1461024357600080fd5b80634bbd3f2b116100e95780634bbd3f2b1461018e5780634ec8daff146101ae57806350cd22c4146101d157806350dcb770146101e457806350de0238146101f757600080fd5b80630b817c381461011b57806310370e151461013957806314a0069a1461014e5780633b9833e11461016e575b600080fd5b6101236102d2565b6040516101309190612296565b60405180910390f35b61014c61014736600461240b565b610616565b005b61016161015c3660046125c9565b6107eb565b6040516101309190612605565b61018161017c3660046125c9565b610df1565b604051610130919061272d565b6101a161019c366004612786565b610f61565b604051610130919061279f565b6101c16101bc3660046125c9565b61100d565b6040519015158152602001610130565b6101c16101df3660046125c9565b611044565b6101c16101f23660046125c9565b611057565b61014c61020536600461285f565b611086565b6101c16102183660046125c9565b61126c565b61018161022b3660046125c9565b6112f4565b61014c61023e366004612a0b565b61145c565b6101c1610251366004612ac7565b61158c565b6101a1610264366004612b2e565b611671565b6101816102773660046125c9565b6116b8565b61014c61028a366004612ac7565b6117fa565b6102a261029d3660046125c9565b611867565b6040516101309190612b72565b6102c26102bd3660046125c9565b611f2e565b6040516101309493929190612cbb565b6006546060906000906001600160401b038111156102f2576102f2612356565b60405190808252806020026020018201604052801561034e57816020015b61033b6040518060800160405280606081526020016060815260200160608152602001606081525090565b8152602001906001900390816103105790505b50905060005b6006548110156106105760056006828154811061037357610373612d13565b9060005260206000200160405161038a9190612d5d565b90815260200160405180910390206040518060800160405290816000820180546103b390612d29565b80601f01602080910402602001604051908101604052809291908181526020018280546103df90612d29565b801561042c5780601f106104015761010080835404028352916020019161042c565b820191906000526020600020905b81548152906001019060200180831161040f57829003601f168201915b5050505050815260200160018201805461044590612d29565b80601f016020809104026020016040519081016040528092919081815260200182805461047190612d29565b80156104be5780601f10610493576101008083540402835291602001916104be565b820191906000526020600020905b8154815290600101906020018083116104a157829003601f168201915b505050505081526020016002820180546104d790612d29565b80601f016020809104026020016040519081016040528092919081815260200182805461050390612d29565b80156105505780601f1061052557610100808354040283529160200191610550565b820191906000526020600020905b81548152906001019060200180831161053357829003601f168201915b5050505050815260200160038201805461056990612d29565b80601f016020809104026020016040519081016040528092919081815260200182805461059590612d29565b80156105e25780601f106105b7576101008083540402835291602001916105e2565b820191906000526020600020905b8154815290600101906020018083116105c557829003601f168201915b5050505050815250508282815181106105fd576105fd612d13565b6020908102919091010152600101610354565b50919050565b600060095460ff16600181111561062f5761062f612dd2565b146106555760405162461bcd60e51b815260040161064c90612de8565b60405180910390fd5b60006040518061016001604052808c81526020018b81526020018a815260200189815260200188815260200187815260200186815260200185815260200184815260200183815260200160008152509050806002876040516106b79190612e32565b908152604051908190036020019020815181906106d49082612e9d565b50602082015160018201906106e99082612e9d565b50604082015160028201906106fe9082612e9d565b50606082015160038201906107139082612e9d565b50608082015160048201906107289082612e9d565b5060a0820151600582019061073d9082612e9d565b5060c082015160068201906107529082612e9d565b5060e082015160078201906107679082612e9d565b50610100820151600882019061077d9082612e9d565b5061012082015160098201906107939082612e9d565b5061014082015181600a01559050506004856040516107b29190612e32565b9081526040516020918190038201902080546001810182556000918252919020016107dd8782612e9d565b505050505050505050505050565b6108436040518061014001604052806060815260200160608152602001606081526020016060815260200160608152602001606081526020016060815260200160608152602001606081526020016000151581525090565b6001826040516108539190612e32565b908152604051908190036020019020805461086d90612d29565b905060000361088e5760405162461bcd60e51b815260040161064c90612f5b565b60018260405161089e9190612e32565b9081526020016040518091039020604051806101400160405290816000820180546108c890612d29565b80601f01602080910402602001604051908101604052809291908181526020018280546108f490612d29565b80156109415780601f1061091657610100808354040283529160200191610941565b820191906000526020600020905b81548152906001019060200180831161092457829003601f168201915b5050505050815260200160018201805461095a90612d29565b80601f016020809104026020016040519081016040528092919081815260200182805461098690612d29565b80156109d35780601f106109a8576101008083540402835291602001916109d3565b820191906000526020600020905b8154815290600101906020018083116109b657829003601f168201915b505050505081526020016002820180546109ec90612d29565b80601f0160208091040260200160405190810160405280929190818152602001828054610a1890612d29565b8015610a655780601f10610a3a57610100808354040283529160200191610a65565b820191906000526020600020905b815481529060010190602001808311610a4857829003601f168201915b50505050508152602001600382018054610a7e90612d29565b80601f0160208091040260200160405190810160405280929190818152602001828054610aaa90612d29565b8015610af75780601f10610acc57610100808354040283529160200191610af7565b820191906000526020600020905b815481529060010190602001808311610ada57829003601f168201915b50505050508152602001600482018054610b1090612d29565b80601f0160208091040260200160405190810160405280929190818152602001828054610b3c90612d29565b8015610b895780601f10610b5e57610100808354040283529160200191610b89565b820191906000526020600020905b815481529060010190602001808311610b6c57829003601f168201915b50505050508152602001600582018054610ba290612d29565b80601f0160208091040260200160405190810160405280929190818152602001828054610bce90612d29565b8015610c1b5780601f10610bf057610100808354040283529160200191610c1b565b820191906000526020600020905b815481529060010190602001808311610bfe57829003601f168201915b50505050508152602001600682018054610c3490612d29565b80601f0160208091040260200160405190810160405280929190818152602001828054610c6090612d29565b8015610cad5780601f10610c8257610100808354040283529160200191610cad565b820191906000526020600020905b815481529060010190602001808311610c9057829003601f168201915b50505050508152602001600782018054610cc690612d29565b80601f0160208091040260200160405190810160405280929190818152602001828054610cf290612d29565b8015610d3f5780601f10610d1457610100808354040283529160200191610d3f565b820191906000526020600020905b815481529060010190602001808311610d2257829003601f168201915b50505050508152602001600882018054610d5890612d29565b80601f0160208091040260200160405190810160405280929190818152602001828054610d8490612d29565b8015610dd15780601f10610da657610100808354040283529160200191610dd1565b820191906000526020600020905b815481529060010190602001808311610db457829003601f168201915b50505091835250506009919091015460ff16151560209091015292915050565b60606000600483604051610e059190612e32565b9081526040519081900360200190205490506000816001600160401b03811115610e3157610e31612356565b604051908082528060200260200182016040528015610e6457816020015b6060815260200190600190039081610e4f5790505b50905060005b82811015610f5957600485604051610e829190612e32565b90815260200160405180910390208181548110610ea157610ea1612d13565b906000526020600020018054610eb690612d29565b80601f0160208091040260200160405190810160405280929190818152602001828054610ee290612d29565b8015610f2f5780601f10610f0457610100808354040283529160200191610f2f565b820191906000526020600020905b815481529060010190602001808311610f1257829003601f168201915b5050505050828281518110610f4657610f46612d13565b6020908102919091010152600101610e6a565b509392505050565b60068181548110610f7157600080fd5b906000526020600020016000915090508054610f8c90612d29565b80601f0160208091040260200160405190810160405280929190818152602001828054610fb890612d29565b80156110055780601f10610fda57610100808354040283529160200191611005565b820191906000526020600020905b815481529060010190602001808311610fe857829003601f168201915b505050505081565b6000806001836040516110209190612e32565b908152604051908190036020019020805461103a90612d29565b9050119050919050565b6000806002836040516110209190612e32565b60008060058360405161106a9190612e32565b9081526020016040518091039020600301805461103a90612d29565b600060095460ff16600181111561109f5761109f612dd2565b146110bc5760405162461bcd60e51b815260040161064c90612de8565b60006040518061014001604052808c81526020018b81526020018a81526020018981526020018881526020018781526020018681526020018581526020018481526020016000151581525090508060018760405161111a9190612e32565b908152604051908190036020019020815181906111379082612e9d565b506020820151600182019061114c9082612e9d565b50604082015160028201906111619082612e9d565b50606082015160038201906111769082612e9d565b506080820151600482019061118b9082612e9d565b5060a082015160058201906111a09082612e9d565b5060c082015160068201906111b59082612e9d565b5060e082015160078201906111ca9082612e9d565b5061010082015160088201906111e09082612e9d565b5061012091909101516009909101805460ff191691151591909117905560405160039061120e908790612e32565b9081526040516020918190038201902080546001810182556000918252919020016112398782612e9d565b508160008760405161124b9190612e32565b908152602001604051809103902090805190602001906107dd929190612181565b600060018260405161127e9190612e32565b908152604051908190036020019020805461129890612d29565b90506000036112b95760405162461bcd60e51b815260040161064c90612f5b565b6001826040516112c99190612e32565b9081526040519081900360200190206009015460ff16156112ec57506000919050565b506001919050565b606060006003836040516113089190612e32565b9081526040519081900360200190205490506000816001600160401b0381111561133457611334612356565b60405190808252806020026020018201604052801561136757816020015b60608152602001906001900390816113525790505b50905060005b82811015610f59576003856040516113859190612e32565b908152602001604051809103902081815481106113a4576113a4612d13565b9060005260206000200180546113b990612d29565b80601f01602080910402602001604051908101604052809291908181526020018280546113e590612d29565b80156114325780601f1061140757610100808354040283529160200191611432565b820191906000526020600020905b81548152906001019060200180831161141557829003601f168201915b505050505082828151811061144957611449612d13565b602090810291909101015260010161136d565b600060095460ff16600181111561147557611475612dd2565b146114925760405162461bcd60e51b815260040161064c90612de8565b6000848484846040516020016114ab9493929190612f92565b60408051601f19818403018152608083018252878352602083018790528282018690526060830185905290519092506005906114e8908490612e32565b908152604051908190036020019020815181906115059082612e9d565b506020820151600182019061151a9082612e9d565b506040820151600282019061152f9082612e9d565b50606082015160038201906115449082612e9d565b5050600680546001810182556000919091527ff652222313e28459528d920b65115c16c04f3efc82aaedc97be59f3f377c0d3f0190506115848282612e9d565b505050505050565b60006001815b6004856040516115a29190612e32565b90815260405190819003602001902054811015610f5957836040516020016115ca9190612e32565b6040516020818303038152906040528051906020012060026004876040516115f29190612e32565b9081526020016040518091039020838154811061161157611611612d13565b906000526020600020016040516116289190612d5d565b90815260200160405180910390206008016040516020016116499190612d5d565b604051602081830303815290604052805190602001200361166957600091505b600101611592565b8151602081840181018051600082529282019185019190912091905280548290811061169c57600080fd5b90600052602060002001600091509150508054610f8c90612d29565b60606001826040516116ca9190612e32565b90815260405190819003602001902080546116e490612d29565b90506000036117055760405162461bcd60e51b815260040161064c90612f5b565b6000826040516117159190612e32565b9081526020016040518091039020805480602002602001604051908101604052809291908181526020016000905b828210156117ef57838290600052602060002001805461176290612d29565b80601f016020809104026020016040519081016040528092919081815260200182805461178e90612d29565b80156117db5780601f106117b0576101008083540402835291602001916117db565b820191906000526020600020905b8154815290600101906020018083116117be57829003601f168201915b505050505081526020019060010190611743565b505050509050919050565b60028160405161180a9190612e32565b908152604051908190036020019020600a01805490600061182a83613018565b9190505550600180836040516118409190612e32565b908152604051908190036020019020600901805491151560ff199092169190911790555050565b6118c460405180610160016040528060608152602001606081526020016060815260200160608152602001606081526020016060815260200160608152602001606081526020016060815260200160608152602001600081525090565b6002826040516118d49190612e32565b90815260405190819003602001902080546118ee90612d29565b905060000361193f5760405162461bcd60e51b815260206004820152601b60248201527f43616e646964617465206973206e6f7420726567697374657265640000000000604482015260640161064c565b60028260405161194f9190612e32565b90815260200160405180910390206040518061016001604052908160008201805461197990612d29565b80601f01602080910402602001604051908101604052809291908181526020018280546119a590612d29565b80156119f25780601f106119c7576101008083540402835291602001916119f2565b820191906000526020600020905b8154815290600101906020018083116119d557829003601f168201915b50505050508152602001600182018054611a0b90612d29565b80601f0160208091040260200160405190810160405280929190818152602001828054611a3790612d29565b8015611a845780601f10611a5957610100808354040283529160200191611a84565b820191906000526020600020905b815481529060010190602001808311611a6757829003601f168201915b50505050508152602001600282018054611a9d90612d29565b80601f0160208091040260200160405190810160405280929190818152602001828054611ac990612d29565b8015611b165780601f10611aeb57610100808354040283529160200191611b16565b820191906000526020600020905b815481529060010190602001808311611af957829003601f168201915b50505050508152602001600382018054611b2f90612d29565b80601f0160208091040260200160405190810160405280929190818152602001828054611b5b90612d29565b8015611ba85780601f10611b7d57610100808354040283529160200191611ba8565b820191906000526020600020905b815481529060010190602001808311611b8b57829003601f168201915b50505050508152602001600482018054611bc190612d29565b80601f0160208091040260200160405190810160405280929190818152602001828054611bed90612d29565b8015611c3a5780601f10611c0f57610100808354040283529160200191611c3a565b820191906000526020600020905b815481529060010190602001808311611c1d57829003601f168201915b50505050508152602001600582018054611c5390612d29565b80601f0160208091040260200160405190810160405280929190818152602001828054611c7f90612d29565b8015611ccc5780601f10611ca157610100808354040283529160200191611ccc565b820191906000526020600020905b815481529060010190602001808311611caf57829003601f168201915b50505050508152602001600682018054611ce590612d29565b80601f0160208091040260200160405190810160405280929190818152602001828054611d1190612d29565b8015611d5e5780601f10611d3357610100808354040283529160200191611d5e565b820191906000526020600020905b815481529060010190602001808311611d4157829003601f168201915b50505050508152602001600782018054611d7790612d29565b80601f0160208091040260200160405190810160405280929190818152602001828054611da390612d29565b8015611df05780601f10611dc557610100808354040283529160200191611df0565b820191906000526020600020905b815481529060010190602001808311611dd357829003601f168201915b50505050508152602001600882018054611e0990612d29565b80601f0160208091040260200160405190810160405280929190818152602001828054611e3590612d29565b8015611e825780601f10611e5757610100808354040283529160200191611e82565b820191906000526020600020905b815481529060010190602001808311611e6557829003601f168201915b50505050508152602001600982018054611e9b90612d29565b80601f0160208091040260200160405190810160405280929190818152602001828054611ec790612d29565b8015611f145780601f10611ee957610100808354040283529160200191611f14565b820191906000526020600020905b815481529060010190602001808311611ef757829003601f168201915b50505050508152602001600a820154815250509050919050565b8051602081830181018051600582529282019190930120915280548190611f5490612d29565b80601f0160208091040260200160405190810160405280929190818152602001828054611f8090612d29565b8015611fcd5780601f10611fa257610100808354040283529160200191611fcd565b820191906000526020600020905b815481529060010190602001808311611fb057829003601f168201915b505050505090806001018054611fe290612d29565b80601f016020809104026020016040519081016040528092919081815260200182805461200e90612d29565b801561205b5780601f106120305761010080835404028352916020019161205b565b820191906000526020600020905b81548152906001019060200180831161203e57829003601f168201915b50505050509080600201805461207090612d29565b80601f016020809104026020016040519081016040528092919081815260200182805461209c90612d29565b80156120e95780601f106120be576101008083540402835291602001916120e9565b820191906000526020600020905b8154815290600101906020018083116120cc57829003601f168201915b5050505050908060030180546120fe90612d29565b80601f016020809104026020016040519081016040528092919081815260200182805461212a90612d29565b80156121775780601f1061214c57610100808354040283529160200191612177565b820191906000526020600020905b81548152906001019060200180831161215a57829003601f168201915b5050505050905084565b8280548282559060005260206000209081019282156121c7579160200282015b828111156121c757825182906121b79082612e9d565b50916020019190600101906121a1565b506121d39291506121d7565b5090565b808211156121d35760006121eb82826121f4565b506001016121d7565b50805461220090612d29565b6000825580601f10612210575050565b601f01602090049060005260206000209081019061222e9190612231565b50565b5b808211156121d35760008155600101612232565b60005b83811015612261578181015183820152602001612249565b50506000910152565b60008151808452612282816020860160208601612246565b601f01601f19169290920160200192915050565b6000602082016020835280845180835260408501915060408160051b86010192506020860160005b8281101561234a57603f1987860301845281518051608087526122e4608088018261226a565b9050602082015187820360208901526122fd828261226a565b91505060408201518782036040890152612317828261226a565b915050606082015191508681036060880152612333818361226a565b9650505060209384019391909101906001016122be565b50929695505050505050565b634e487b7160e01b600052604160045260246000fd5b604051601f8201601f191681016001600160401b038111828210171561239457612394612356565b604052919050565b600082601f8301126123ad57600080fd5b81356001600160401b038111156123c6576123c6612356565b6123d9601f8201601f191660200161236c565b8181528460208386010111156123ee57600080fd5b816020850160208301376000918101602001919091529392505050565b6000806000806000806000806000806101408b8d03121561242b57600080fd5b8a356001600160401b0381111561244157600080fd5b61244d8d828e0161239c565b9a505060208b01356001600160401b0381111561246957600080fd5b6124758d828e0161239c565b99505060408b01356001600160401b0381111561249157600080fd5b61249d8d828e0161239c565b98505060608b01356001600160401b038111156124b957600080fd5b6124c58d828e0161239c565b97505060808b01356001600160401b038111156124e157600080fd5b6124ed8d828e0161239c565b96505060a08b01356001600160401b0381111561250957600080fd5b6125158d828e0161239c565b95505060c08b01356001600160401b0381111561253157600080fd5b61253d8d828e0161239c565b94505060e08b01356001600160401b0381111561255957600080fd5b6125658d828e0161239c565b9350506101008b01356001600160401b0381111561258257600080fd5b61258e8d828e0161239c565b9250506101208b01356001600160401b038111156125ab57600080fd5b6125b78d828e0161239c565b9150509295989b9194979a5092959850565b6000602082840312156125db57600080fd5b81356001600160401b038111156125f157600080fd5b6125fd8482850161239c565b949350505050565b6020815260008251610140602084015261262361016084018261226a565b90506020840151601f19848303016040850152612640828261226a565b9150506040840151601f1984830301606085015261265e828261226a565b9150506060840151601f1984830301608085015261267c828261226a565b9150506080840151601f198483030160a085015261269a828261226a565b91505060a0840151601f198483030160c08501526126b8828261226a565b91505060c0840151601f198483030160e08501526126d6828261226a565b91505060e0840151601f19848303016101008501526126f5828261226a565b915050610100840151601f1984830301610120850152612715828261226a565b915050610120840151610f5961014085018215159052565b6000602082016020835280845180835260408501915060408160051b86010192506020860160005b8281101561234a57603f1987860301845261277185835161226a565b94506020938401939190910190600101612755565b60006020828403121561279857600080fd5b5035919050565b6020815260006127b2602083018461226a565b9392505050565b600082601f8301126127ca57600080fd5b81356001600160401b038111156127e3576127e3612356565b8060051b6127f36020820161236c565b9182526020818501810192908101908684111561280f57600080fd5b6020860192505b838310156128555782356001600160401b0381111561283457600080fd5b612843886020838a010161239c565b83525060209283019290910190612816565b9695505050505050565b6000806000806000806000806000806101408b8d03121561287f57600080fd5b8a356001600160401b0381111561289557600080fd5b6128a18d828e0161239c565b9a505060208b01356001600160401b038111156128bd57600080fd5b6128c98d828e0161239c565b99505060408b01356001600160401b038111156128e557600080fd5b6128f18d828e0161239c565b98505060608b01356001600160401b0381111561290d57600080fd5b6129198d828e0161239c565b97505060808b01356001600160401b0381111561293557600080fd5b6129418d828e0161239c565b96505060a08b01356001600160401b0381111561295d57600080fd5b6129698d828e0161239c565b95505060c08b01356001600160401b0381111561298557600080fd5b6129918d828e0161239c565b94505060e08b01356001600160401b038111156129ad57600080fd5b6129b98d828e0161239c565b9350506101008b01356001600160401b038111156129d657600080fd5b6129e28d828e0161239c565b9250506101208b01356001600160401b038111156129ff57600080fd5b6125b78d828e016127b9565b60008060008060808587031215612a2157600080fd5b84356001600160401b03811115612a3757600080fd5b612a438782880161239c565b94505060208501356001600160401b03811115612a5f57600080fd5b612a6b8782880161239c565b93505060408501356001600160401b03811115612a8757600080fd5b612a938782880161239c565b92505060608501356001600160401b03811115612aaf57600080fd5b612abb8782880161239c565b91505092959194509250565b60008060408385031215612ada57600080fd5b82356001600160401b03811115612af057600080fd5b612afc8582860161239c565b92505060208301356001600160401b03811115612b1857600080fd5b612b248582860161239c565b9150509250929050565b60008060408385031215612b4157600080fd5b82356001600160401b03811115612b5757600080fd5b612b638582860161239c565b95602094909401359450505050565b60208152600082516101606020840152612b9061018084018261226a565b90506020840151601f19848303016040850152612bad828261226a565b9150506040840151601f19848303016060850152612bcb828261226a565b9150506060840151601f19848303016080850152612be9828261226a565b9150506080840151601f198483030160a0850152612c07828261226a565b91505060a0840151601f198483030160c0850152612c25828261226a565b91505060c0840151601f198483030160e0850152612c43828261226a565b91505060e0840151601f1984830301610100850152612c62828261226a565b915050610100840151601f1984830301610120850152612c82828261226a565b915050610120840151601f1984830301610140850152612ca2828261226a565b9150506101408401516101608401528091505092915050565b608081526000612cce608083018761226a565b8281036020840152612ce0818761226a565b90508281036040840152612cf4818661226a565b90508281036060840152612d08818561226a565b979650505050505050565b634e487b7160e01b600052603260045260246000fd5b600181811c90821680612d3d57607f821691505b60208210810361061057634e487b7160e01b600052602260045260246000fd5b6000808354612d6b81612d29565b600182168015612d825760018114612d9757612dc7565b60ff1983168652811515820286019350612dc7565b86600052602060002060005b83811015612dbf57815488820152600190910190602001612da3565b505081860193505b509195945050505050565b634e487b7160e01b600052602160045260246000fd5b6020808252602a908201527f4f6e6c792061646d696e6973747261746f72732063616e2063616c6c207468696040820152693990333ab731ba34b7b760b11b606082015260800190565b60008251612e44818460208701612246565b9190910192915050565b601f821115612e9857806000526020600020601f840160051c81016020851015612e755750805b601f840160051c820191505b81811015612e955760008155600101612e81565b50505b505050565b81516001600160401b03811115612eb657612eb6612356565b612eca81612ec48454612d29565b84612e4e565b6020601f821160018114612efe5760008315612ee65750848201515b600019600385901b1c1916600184901b178455612e95565b600084815260208120601f198516915b82811015612f2e5787850151825560209485019460019092019101612f0e565b5084821015612f4c5786840151600019600387901b60f8161c191681555b50505050600190811b01905550565b60208082526017908201527f566f746572206973206e6f742072656769737465726564000000000000000000604082015260600190565b60008551612fa4818460208a01612246565b602d60f81b9083019081528551612fc2816001840160208a01612246565b602d60f81b600192909101918201528451612fe4816002840160208901612246565b600181830101915050602d60f81b6001820152835161300a816002840160208801612246565b016002019695505050505050565b60006001820161303857634e487b7160e01b600052601160045260246000fd5b506001019056fea2646970667358221220100af6d47afbbd169947c792996789c545791a5a8d6fb8640d51893b9be4db5164736f6c634300081c0033",
  "linkReferences": {},
  "deployedLinkReferences": {}
}